:020000040000FA
:060000003DEF03F01200C9
:020006000000F8
:08000800D9CFE6FFE1CFD9FFDB
:10001000FB0EDBCF10F0FC0EDBCF11F0FD0EDBCFC3
:1000200012F0FE0EDBCF13F01050125C115013587B
:1000300003E2F36AF46A13D0FD0EDBCF12F0FE0E7A
:10004000DBCF13F0FB0EDB50125C106EFC0EDB50AE
:100050001358116E10C0F3FF11C0F4FF00D0E55229
:10006000E7CFD9FF1200D9CFE6FFE1CFD9FFD950B2
:10007000FD0FE96EFF0EDA20EA6EFF0ED880EE5417
:10008000000EED5402E2FF0E03D0FD0EDB5000D057
:10009000E552E7CFD9FF1200D9CFE6FFE1CFD9FF74
:1000A000FE0EDBCFE6FF00EC03F0E5523C0EE66E01
:1000B00059EC03F0E55272EC03F06DEC03F000092B
:1000C00001E0FBD73C0EE66E59EC03F0E55264EC20
:1000D00003F000D0E552E7CFD9FF1200D9CFE6FFF9
:1000E000E1CFD9FF956A946AFE0EDB40E8403F0BF2
:1000F000040A15E0070A10E0010A0BE0030A06E013
:10010000010A01E00FD0C30E836E0CD0A30E836EE4
:1001100009D0630E836E06D0E20E836E03D0E10E2B
:10012000836E00D0100E8210826E0C0E8310836ED0
:10013000E552E7CFD9FF1200D9CFE6FFE1CFD9FFD3
:10014000E552E7CFD9FF1200D9CFE6FFE1CFD9FFC3
:10015000FE0EDB5012E0010E0001806F816B836B9D
:10016000826B886B846B856B866B876BBC0E896F2B
:10017000020E8A6F640E8B6F8C6B0001010E805D26
:10018000000E815902E2000E64D0842B000E8523FC
:10019000862B872389C010F08AC011F0010E0F0B47
:1001A00005E0D89011321032E806FBE100018451DD
:1001B000105C8551115808E2846B856B885103E10E
:1001C000010E886F01D0886B8BC010F08CC011F0CD
:1001D000030E0B6E0C6A10C006F011C007F017EC8E
:1001E00003F006C010F007C011F000018651105C4A
:1001F0008751115808E2866B876B885103E1010E25
:10020000886F01D0886B835113E1822B82510A08D9
:100210000EE28907000E8A5B826B802B8123FE0E23
:10022000D8808055000E815502E2010E836F0BD0FD
:10023000822B8251640807E2826B1D0E8927000E13
:100240008A238007815B885102E0805102D0000E32
:1002500000D0E552E7CFD9FF1200D9CFE6FFE1CFBA
:10026000D9FF280EE126966A956A946A936A3F0E32
:10027000926E836A826A816A806E846AF00ED36E9F
:10028000CB0E9B6E3F0ECB6E040ECA6E3E0EBE6E44
:100290002F0EBD6E0C0EDB6A0D0EDB6A0E0EDB6AD6
:1002A0000F0EDB6A100EDB6A110EDB6A120EDB6AC0
:1002B000130EDB6AD9500C0FE96EDACFEAFFEE2A93
:1002C000000EEE22EE22EE22D9500C0FE96EDACFAC
:1002D000EAFF700EEE5C170EEE58000EEE58000EA0
:1002E000EE5828E30C0EDB6A0D0EDB6A0E0EDB6A9D
:1002F0000F0EDB6AD950200FE96EDACFEAFFEE2A43
:10030000000EEE22EE22EE22D950200FE96EDACF57
:10031000EAFF140EEE5C000EEE58000EEE58000ED2
:10032000EE5808E3200EDB6A210EDB6A220EDB6A40
:10033000230EDB6A010EE66E200EDBCFE6FFCEDE7B
:10034000E552E5520C0EDBCF10F00D0EDBCF11F0B5
:100350000E0EDBCF12F00F0EDBCF13F0105011108A
:100360001210131002E0000E01D0010EE66EECDE5A
:10037000E552E840E8403F0BBE6E0C0EDBCF10F0BC
:100380000D0EDBCF11F00E0EDBCF12F00F0EDBCF18
:1003900013F0105011101210131002E0000E01D0D3
:1003A000010EE66ED1DEE552030B100DF3500C0981
:1003B000BD6E020EE66E4BEC03F0E5527BD7280EC5
:1003C000E15C02E2E16AE552E16EE552E7CFD9FF76
:0203D000120019
:0E03D200232323232323232323232323232333
:1003E00022222222222221212121202020201F1FFF
:1003F0001F1F1E1E1E1D1D1D1C1C1C1B1B1A1A1A36
:10040000191918181817171616151515141413138B
:10041000121212111110100F0F0E0E0E0D0D0C0CEA
:100420000B0B0B0A0A090909080807070706060645
:100430000505050404040403030303020202020188
:1004400001010101010000000000000000000000A7
:10045000000000000000000000000000000000009C
:10046000010101010101020202020303030304046A
:100470000404050505060606070707080809090913
:100480000A0A0B0B0B0C0C0D0D0E0E0E0F0F10109D
:10049000111111121213131414151515161617171E
:1004A00018181819191A1A1A1B1B1C1C1C1D1D1DA3
:1004B0001E1E1E1F1F1F1F20202020212121212240
:1004C0002222222222232323232323232323232301
:1004D00023232300000000000000000000000000B3
:1004E000000000000000000000000000000000000C
:1004F00000000000000000000000000000000000FC
:1005000000000000000000000000000000000000EB
:1005100000000000000000000000000000000000DB
:1005200000000000000000000000000000000000CB
:1005300000000000000000000000000000000000BB
:1005400000000000000000000000000000000000AB
:10055000000000000000000000000000000000009B
:02056000000099
:0E056200060EF66E000EF76E000EF86E00012B
:100570000900F550956F0900F550966F03E19567F6
:1005800001D03DD00900F550906F0900F550916FF2
:100590000900F550926F09000900F550E96E090055
:1005A000F550EA6E090009000900F550936F090043
:1005B000F550946F09000900F6CF97F0F7CF98F047
:1005C000F8CF99F090C0F6FF91C0F7FF92C0F8FF06
:1005D0000001935302E1945307E00900F550EE6ED9
:1005E0009307F8E29407F9D797C0F6FF98C0F7FF92
:1005F00099C0F8FF00019507000E965BBFD7120067
:10060000D9CFE6FFDACFE6FFE1CFD9FFE2CFDAFFBD
:10061000C30EC214106EFD0EDB407F0B3C0B10109E
:0E062000C26EE552E5CFDAFFE7CFD9FF120038
:02062E00036A5D
:10063000026A100EE76ED890063607360236033689
:100640000B50025C0C50035805E30B50025E0C503B
:0A065000035A062AE72EF0D7120025
:06065A00000EF36E00EE3D
:1006600000F0060E01D81200EA6002D0EE6AFCD754
:0A067000F350E9601200EE6AFCD7B7
:06067A0015EE00F025EE74
:1006800000F0F86A0F9CB1EC02F074EC03F02DEC72
:0606900001F0FBD712008F
:0A069600FF0EE350146E1B0E00D09F
:1006A00001D0200EE76EE72EFED7142EFAD700D029
:0206B000120036
:0E06B200FF0EE350E84E1200000000D000D012
:0806C00000D0E82EFAD7120069
:0806C800C450136E126AC35006
:0A06D0001210F36E13C0F4FF1200C5
:0606DA00C250020B01E01A
:0406E000010E1200F5
:0406E400C2821200BC
:0206E8001200FE
:00000001FF
