:020000040000FA
:06000000DCEF07F0120026
:020006001200E6
:060008009FEF05F012005D
:02000E000100EF
:0C00100010100000D900000001000000EA
:04001C00D9CFE6FF53
:10002000E1CFD9FFFB0EDBCF14F0FC0EDBCF15F0D8
:10003000FD0EDBCF16F0FE0EDBCF17F01450165C72
:100040001550175803E2F36AF46A13D0FD0EDBCFA4
:1000500016F0FE0EDBCF17F0FB0EDB50165C146EB5
:10006000FC0EDB501758156E14C0F3FF15C0F4FFDB
:1000700000D0E552E7CFD9FF1200D9CFE6FFE1CF9C
:10008000D9FFFB0EDBCF14F0FC0EDBCF15F0FD0E1D
:10009000DBCF16F0FE0EDBCF17F01450165C1550B8
:1000A000175813E2FB0EDBCF16F0FC0EDBCF17F078
:1000B000FD0EDB50165C146EFE0EDB501758156EED
:1000C00014C0F3FF15C0F4FF13D0FD0EDBCF16F004
:1000D000FE0EDBCF17F0FB0EDB50165C146EFC0E31
:1000E000DB501758156E14C0F3FF15C0F4FF00D095
:1000F000E552E7CFD9FF1200D9CFE6FFE1CFD9FF14
:10010000D950FD0FE96EFF0EDA20EA6EFF0ED8809F
:10011000EE54000EED5402E2FF0E03D0FD0EDB5054
:1001200000D0E552E7CFD9FF1200D9CFE6FFE1CFEB
:10013000D9FFFE0EDBCFE6FF9FEC07F0E55206ECA1
:1001400008F001EC08F0000901E0FBD7F8EC07F03B
:10015000F3CF14F0F4CF15F0D89015321432D890B4
:1001600015321432145000D0E552E7CFD9FF1200F7
:10017000D9CFE6FFE1CFD9FF9568100E9410946EA9
:100180008C6AEF0E8B148B6EFE0EDB50130A01E1AE
:10019000BED0010A01E1B3D0030A01E1A8D0010AEF
:1001A00001E19DD01F0A01E194D0010A01E18BD049
:1001B000030A01E182D0010A01E179D0070A6FE068
:1001C000010A65E0030A5BE0010A51E00F0A47E01B
:1001D000010A3DE0030A33E0010A29E0070A1FE0B3
:1001E000010A15E0030A0BE0010A01E098D0959896
:1001F0008C888350200B01E0010E91D090D0949810
:100200008B888350200B01E0010E89D088D0959611
:100210008C868350200B01E0010E81D080D0959414
:100220008C848350200B01E0010E79D078D0959812
:100230008C888350400B01E0010E71D070D09498EF
:100240008B888350400B01E0010E69D068D09596F1
:100250008C868350400B01E0010E61D060D09594F4
:100260008C848350400B01E0010E59D058D09598F2
:100270008C888350800B01E0010E51D050D09498AF
:100280008B888350800B01E0010E49D048D09596B1
:100290008C868350800B01E0010E41D040D09594B4
:1002A0008C848350800B01E0010E39D038D09598B2
:1002B0008C888350010B33D032D094988B88835034
:1002C000010B2DD02CD095968C868350010B27D016
:1002D00026D095948C848350010B21D020D0959802
:1002E0008C888350020B01E0010E19D018D094982D
:1002F0008B888350020B01E0010E11D010D095962F
:100300008C868350020B01E0010E09D008D0959431
:100310008C848350020B01E0010E01D000D0E55225
:10032000E7CFD9FF1200956A946A1C0E836EEF0E18
:100330008214826E1200D9CFE6FFE1CFD9FFE652D8
:100340009568946A836A100E8210826EFE0EDB50EE
:10035000130A01E198D0010A01E190D0030A01E1FA
:1003600085D0010A01E17DD01F0A76E0010A6FE025
:10037000030A65E0010A5EE0070A57E0010A50E05F
:10038000030A46E0010A3FE00F0A38E0010A31E0C3
:10039000030A27E0010A20E0070A19E0010A12E037
:1003A000030A08E0010A01E073D02C0E836EC30E2D
:1003B000956E6ED03C0E836EEF0E8214826EC30E6D
:1003C000956E66D0340E836EC30E956E61D0380E76
:1003D000836EC30E956E5CD04C0E836EA30E956E2D
:1003E00057D05C0E836EEF0E8214826EA30E956E54
:1003F0004FD0540E836EA30E956E4AD0580E836E66
:10040000A30E956E45D08C0E836E630E956E40D014
:100410009C0E836EEF0E8214826E630E956E38D042
:10042000940E836E630E956E33D0980E836E630EBA
:10043000956E2ED00D0E836EE20E956E29D01D0E98
:10044000836EEF0E8214826EE20E956E21D0150E31
:10045000836EE20E956E1CD0190E836EE20E956EC1
:1004600017D00E0E836EE10E956E12D01E0E836EA7
:10047000EF0E8214826EE10E956E0AD0160E836E18
:10048000E10E956E05D01A0E836EE10E956E00D0CA
:10049000E552E552E7CFD9FF1200000187510BE08A
:1004A00080C088F0896B8A6B906B8C6B8D6B8E6BC8
:1004B0008F6B876B04D0885102E1000E42D0030E8F
:1004C0008C27000E8D2388518215146E156A8C516D
:1004D000145C8D51155808E28C6B8D6B905102E0C5
:1004E000000E01D0010E906F050E8E27000E8F2397
:1004F00081518815146E156A8E51145C8F511558F0
:1005000008E28E6B8F6B905102E0000E01D0010E5D
:10051000906F050E8927000E8A23320E8325146EF4
:10052000156A000E15228951145C8A51155803E290
:10053000896B8A6B8807905102E0885102D0000EC7
:1005400000D012000001875119E08051020DF3CF55
:1005500091F0F4CF92F08051020DF3CF93F0F4CFED
:1005600094F0000ED8809357020E94579A6B956BB7
:10057000966B976B986B996B876B05D09351941121
:1005800002E1000E53D0100E166E83390F0B165C6D
:10059000146E156A14509527155096239551935D46
:1005A000965194590BE29151955F9251965B912B24
:1005B000000E92239307945B82519A2781390F0B87
:1005C000146E156A145097271550982399510BE013
:1005D0009751935D9851945905E2996B9351975FA8
:1005E0009451985B0BD09751915D9851925906E2C6
:1005F000010E996F9151975F9251985B995114E058
:1006000093C016F094C017F0010E0F0B05E0D890C0
:1006100017321632E806FBE100019A510001161468
:10062000146E156A145002D0000E00D012000001A2
:10063000875106E080C09BF0A06BA16B876B18D040
:100640009B51146E156A8151166E176AFF0ED88081
:100650001656000E175617501518E8AE02D015346E
:1006600004D01450165C1550175802E3000E2AD01F
:10067000050EA027000EA1238351146E156AA05108
:10068000145CA151155803E2A06BA16B9B07020EED
:100690009E27000E9F2382519B15146E156A9E5152
:1006A000145C9F51155808E29E6B9F6BA25102E0AB
:1006B000000E01D0010EA26FA25102E09B5102D0A8
:1006C000000E00D012000001875106E08051A36F98
:1006D000A46BA96BAA6B876B050EA927000EAA2332
:1006E0008351146E156AA951145CAA5115580AE277
:1006F0008351146E156A1450A95F1550AA5BA32B81
:10070000000EA423900EA35D010EA45902E3000E77
:1007100040D0020EA527000EA6238151146E156A43
:10072000A551145CA651155807E28151146E156A43
:100730001450A55F1550A65B020EA727000EA82334
:100740008251146E156AA751145CA851155809E21C
:10075000A56BA66B8251146E156A1450A75F1550D5
:10076000A85BA551A725146EA651A821156E060EEB
:10077000D89014361536E804FBE114C008F015C013
:1007800009F0A3C00DF0A4C00EF0B6EC07F00850BD
:1007900000D012000001875106E08051AB6FAC6BB6
:1007A000B16BB26B876B040EB127000EB22383517D
:1007B000146E156AB151145CB25115580AE2835196
:1007C000146E156A1450B15F1550B25BAB2B000E5E
:1007D000AC23020EAD27000EAE238151146E156AB4
:1007E000AD51145CAE51155807E28151146E156A73
:1007F0001450AD5F1550AE5B020EAF27000EB02354
:100800008251146E156AAF51145CB051155807E24D
:100810008251146E156A1450AF5F1550B05BAD5124
:10082000AF25146EAE51B021156E14C0E6FF15C091
:10083000E6FFABC0E6FFACC0E6FF1FDCE552E552C9
:10084000E552E552F35000D012000001875107E055
:100850008051B36FB46BB96BBA6B876B07D0B35170
:1008600002E1020EB41902E1000E8DD0190EB92773
:10087000000EBA238351146E156AB951145CBA5133
:1008800015580AE28351146E156A1450B95F155059
:10089000BA5BB32B000EB423B3C014F0B4C015F090
:1008A000040ED89015321432E804FBE1210ED880F2
:1008B0001456000E155614500001B5271550B623D6
:1008C0008151E824146E156AB551145CB65115585F
:1008D00002E2B56BB66BB3C014F0B4C015F0040EF1
:1008E000D89015321432E804FBE1210ED88014565A
:1008F000000E155614500001B7271550B823825129
:10090000E824146E156AB751145CB851155802E208
:10091000B76BB86B8151E66EE66AB5C0E6FFB6C04C
:10092000E6FF3DEC00F0E552E552E552E552F3CF2B
:1009300016F0F4CF17F016C0E6FF17C0E6FF00016F
:100940008251E66EE66AB7C0E6FFB8C0E6FF3DEC4E
:1009500000F0E552E552E552E552E552E7CF17F0D7
:10096000E552E7CF16F01650F324146E1750F4201A
:10097000156E010E0F0B05E0D89015321432E80603
:10098000FBE1145000D012000001875106E08051B5
:10099000BB6FBC6BC16B876B07D0BB5102E1020E12
:1009A000BC1902E1000E5BD01E0EC1278351D88016
:1009B000C15504E2C16BBB2B000EBC23BD2B000E46
:1009C000BE238151146E156ABD51145CBE51155879
:1009D00002E2BD6BBE6BBF2B000EC0238251146EB2
:1009E000156ABF51145CC051155802E2BF6BC06B51
:1009F000BD51BF25186EBE51C021196E18C0E6FF4B
:100A000019C0E6FFFF0EE66EE66ABBC0E6FFBCC09B
:100A1000E6FF3DEC00F0E552E552E552E552E552C5
:100A2000E7CF19F0E552E7CF18F0F3CF16F0F4CF87
:100A300017F016C008F017C009F018C00DF019C063
:100A40000EF065EC07F006C014F007C015F0040EB8
:100A5000D89015321432E804FBE1145000D0120093
:100A6000000187510BE080C0C2F0C56BC36BC46B43
:100A7000CA6BCB6BC66BC76B876B04D0C25102E1EC
:100A8000000E5CD0640E166E81C00EF0C2C009F07C
:100A9000EAEC07F0092816C0E7FF070B04E0E7427D
:100AA000E79EE806FCE1E750146E156A14BE15686F
:100AB00014500001CA5F1550CB5BFF0E8203F35048
:100AC000CBAF02D0D89003D0CA5D000ECB5902E262
:100AD000CA69CB6BC32B000EC4238351146E156AF5
:100AE000C351145CC451155813E2C2511F0DF3CF0A
:100AF00014F0F4CF15F0050E0F0B05E0D890153269
:100B00001432E806FBE114C0C2F00001C36BC46BF1
:100B1000800ECB1502E0C25111D0C251CBAF02D032
:100B2000D89003D0CA5D000ECB5902E2CA5106D05C
:100B3000C251CA15146E156A145000D01200DACFD3
:100B4000E4FFE2CFDAFFE9CFE4FFEACFE4FFF6CF3C
:100B5000E4FFF7CFE4FFF5CFE4FFF3CFE4FFF4CFFA
:100B6000E4FFFACFE4FF00EE00F0140EE80403E324
:100B7000EECFE4FFFBD700EE14F0060EE80403E32B
:100B8000EECFE4FFFBD7E652D9CFE6FFE1CFD9FFA6
:100B9000E652F2A458D0A00EE66EE66883EC07F0A9
:100BA000E552E552F294CEDCDF6E0001CE51D880E2
:100BB000DF5402E3000E01D0010EE8B08088E8A007
:100BC0008098DFCFCEF0DF50E840E8403F0BBE6EAC
:100BD000030EDF14100DF3500C09BD6E0001D92B6C
:100BE000D951070B06E0CDC0E6FF9BEC01F0E552C2
:100BF00002D093EC01F0330E0001D95D24E1D96BF2
:100C00000001CC2BCC2B8551040DF3CF1AF0F4CF7F
:100C10001BF0140E1A26000E1B22CC511A5C000E7B
:100C20001B5807E2CC6BCD2B140ECD5D01E3CD6BD1
:100C30000AD0140ECC5D07E1CDC0E6FFB8EC00F0A1
:100C4000E5520001876FE552E552E7CFD9FFE55243
:100C500000EE19F0060EE80403E3E5CFEDFFFBD745
:100C600000EE13F0140EE80403E3E5CFEDFFFBD72D
:100C7000E5CFFAFFE5CFF4FFE5CFF3FFE5CFF5FFD2
:100C8000E5CFF7FFE5CFF6FFE5CFEAFFE5CFE9FFD8
:100C9000E5CFDAFF1100D9CFE6FFE1CFD9FF050E8E
:100CA000E126010EDB6A030EDB6A040EDB6A070E27
:100CB000966E956A946A936AEF0E926E836A826A60
:100CC000816A3F0E806E846A740ED36E8F0E9B6EA7
:100CD000070EE66E240EE66EDB0EE66E2EEC07F0D7
:100CE000E552E552E5523F0ECB6E040ECA6E3E0E43
:100CF000BE6E2F0EBD6EC66AE66A83EC07F0E55243
:100D0000200EF26E040EF16ED08E820ED56EF28E33
:100D1000020EDB2ADB50070A3DE0010A33E0030A3A
:100D200029E0010A1FE0070A15E0010A0BE0030AA7
:100D300001E03AD09F0EE66E95EC00F0E55200011E
:100D4000806F32D0AF0EE66E95EC00F0E5520001F8
:100D5000816F2AD0B70EE66E95EC00F0E5520001E7
:100D6000826F22D0BF0EE66E95EC00F0E5520001D6
:100D7000836F1AD0A70EE66E95EC00F0E5520001E5
:100D8000846F12D0870EE66E95EC00F0E5520001FC
:100D9000856F0AD08F0EE66E95EC00F0E5520001EB
:100DA000866F020EDB6A00D0B3D7050EE15C02E26B
:0E0DB000E16AE552E16EE552E7CFD9FF12008D
:020DBE000E0E17
:100DC000F66E000EF76E000EF86E00010900F55089
:100DD000D46F0900F550D56F03E1D46701D03DD041
:100DE0000900F550CF6F0900F550D06F0900F5509C
:100DF000D16F09000900F550E96E0900F550EA6E5F
:100E0000090009000900F550D26F0900F550D36FB1
:100E100009000900F6CFD6F0F7CFD7F0F8CFD8F019
:100E2000CFC0F6FFD0C0F7FFD1C0F8FF0001D2530A
:100E300002E1D35307E00900F550EE6ED207F8E265
:100E4000D307F9D7D6C0F6FFD7C0F7FFD8C0F8FF51
:0C0E50000001D407000ED55BBFD71200D4
:040E5C00D9CFE6FF05
:100E6000DACFE6FFE1CFD9FFE2CFDAFFC26AC06A8C
:100E7000FC0EDB407F0B3C0BC26EFC0EDB38F00B34
:100E8000300B146EFB0EDB500F0B1410C16EFD0EF9
:100E9000DB50040DF350380B156EFD0EDB380F0BD5
:100EA000070B146EFD0EDB50800B14101510C06E76
:100EB000FC0EDBAE03D09E9C9D8CF28CC280E55272
:0A0EC000E5CFDAFFE7CFD9FF1200FB
:060ECA0008C012F0085000
:100ED0000D02F4CF07F0F3CF06F009500E02F4CF65
:100EE00009F0F3CF08F00D02F3500726F450082262
:100EF000E86A092212500E02F3500726F450082225
:060F0000E86A0922000C62
:0A0F0600D9CFE6FFDACFE6FFE1CF16
:100F1000D9FFE2CFDAFFE652E652FC0EDBCFDEFF6E
:100F2000DBCFDDFF010EDB50D76EDF50D66EE55212
:0E0F3000E552E552E5CFDAFFE7CFD9FF120018
:020F3E00D9CF09
:100F4000E6FFDACFE6FFE1CFD9FFE2CFDAFFC30E4B
:100F5000C214146EFD0EDB407F0B3C0B1410C26EEE
:0C0F6000E552E5CFDAFFE7CFD9FF120021
:040F6C00056A046AA4
:100F7000100EE76ED89008360936043605360D5047
:100F8000045C0E50055805E30D50045E0E50055AE2
:080F9000082AE72EF0D7120039
:080F9800000EF36E00EE00F004
:100FA000060E01D81200EA6002D0EE6AFCD7F350B8
:080FB000E9601200EE6AFCD7B3
:080FB80015EE00F025EE00F03B
:100FC000F86A019CDFEC06F003EC00F04BEC06F055
:040FD000FBD7120039
:0C0FD400056A080EE76ED8900936053655
:100FE0000E50055C02E3056E092AE72EF7D71200C2
:100FF000C450176E166AC3501610F36E17C0F4FF74
:021000001200DC
:0A100200C250020B01E0010E1200C3
:04100C00C28212008A
:0110100000DF
:00000001FF
