:020000040000FA
:06000000D4EF03F0120032
:020006000000F8
:08000800D9CFE6FFE1CFD9FFDB
:10001000FB0EDBCF14F0FC0EDBCF15F0FD0EDBCFBB
:1000200016F0FE0EDBCF17F01450165C1550175863
:1000300014E2FB0EDBCF16F0FC0EDBCF17F0FD0E4B
:10004000DB50165C146EFE0EDB501758156E14C094
:10005000F3FF15C0F4FF14D013D0FD0EDBCF16F064
:10006000FE0EDBCF17F0FB0EDB50165C146EFC0EA1
:10007000DB501758156E14C0F3FF15C0F4FF00D005
:10008000E552E7CFD9FF1200D9CFE6FFE1CFD9FF84
:10009000020EE126870EE66EADEC03F0E552140E7B
:1000A000E66EF0EC03F0E55209EC04F004EC04F029
:1000B000000901E0FBD7140EE66EF0EC03F0E55208
:1000C000FBEC03F0F3CF18F0F4CF19F018C006F0F2
:1000D00019C007F00CEC02F005C014F006C015F0D2
:1000E00007C016F008C017F00A0E0A6ED70E0B6E86
:1000F000230E0C6E410E0D6E14C005F015C006F0F7
:1001000016C007F017C008F01FEC02F072EC02F006
:1001100006C0DEFF07C0DDFFDF50146E020EE15C9B
:1001200003E200D0E16AE552E16E1450E552E7CFF8
:10013000D9FF1200D9CFE6FFE1CFD9FF050EE126A6
:100140000A0E146E14C00CF0FE0EDBCF07F0E2ECCA
:1001500003F0030E03C0DBFF0A0E146E14C00CF094
:10016000FE0EDBCF07F0E2EC03F0040E07C0DBFF6E
:10017000FE0EDB50630805E2630EF36EFE0EF3CF56
:10018000DBFF030EDB50090A67E0010A5AE00F0AA1
:1001900050E0010A43E0030A39E0010A2FE0070AB0
:1001A00025E0010A18E0030A0EE0010A01E05CD034
:1001B000300EDF6EDE52320EDD6E010EF36E020E79
:1001C000F3CFDBFF51D0100EDF6EDE52200EDD6E5E
:1001D000020EDB6A49D0200EDF6EDE52310EDD6E7C
:1001E000010EF36E020EF3CFDBFF3ED0300EDF6E5A
:1001F000DE52310EDD6E020EDB6A36D0100EDF6E7F
:10020000DE52230EDD6E020EDB6A2ED0300EDF6E64
:10021000DE52130EDD6E020EDB6A26D0300EDF6E6C
:10022000DE52130EDD6E010EF36E020EF3CFDBFF16
:100230001BD0100EDF6EDE52300EDD6E020EDB6A5A
:1002400013D0300EDF6EDE52330EDD6E010EF36E14
:10025000020EF3CFDBFF08D0300EDF6EDE52330E1E
:10026000DD6E020EDB6A00D0040EDB50090A5AE094
:10027000010A4DE00F0A44E0010A38E0030A2DE0CC
:10028000010A23E0070A19E0010A0FE0030A07E068
:10029000010A01E051D0000E010E020E4DD0000EF9
:1002A000010E020EDB84DB8E47D0DF86010EDB847D
:1002B000DB86020EDB8CDB8E3FD0DF86010EDB8619
:1002C000020EDB84DB8CDB8E37D0000EDF84DF8612
:1002D000010E020EDB84DB8E2FD0000EDF84DF8662
:1002E000010EDB86020EDB84DB8C26D0000EDF8461
:1002F000DF86010EDB84DB86020EDB84DB8C1CD008
:10030000000E010E020EDB84DB8CDB8E15D0000E9E
:10031000DF84DF86010EDB84DB86020EDB84DB8C70
:10032000DB8E0AD0000EDF84DF86010EDB86020E34
:10033000DB84DB8CDB8E00D0FD0EDB5001E0DF8246
:10034000DF50806E010EDB50816E020EDB50826E3C
:10035000050EE15C02E2E16AE552E16EE552E7CFAB
:10036000D9FF1200D9CFE6FFE1CFD9FF030EE12676
:10037000010EDB6A020EDB6A946A936A010E926ECA
:100380008B6A8A6A896A826A816A806AC66AF70E9B
:100390006D146D6E080E6F106F6E0E0EE66E040E0D
:1003A000E66E9F0EE66E76EC03F0E552E552E552FE
:1003B000DF2AC80EE66EE66AF0EC03F0E552E5527D
:1003C000010EDB2A660EF36E010EDBCFF4FFF35055
:1003D000F45C0DE3010EDFCFDBFF020EDB5002E029
:1003E000000E01D0010EE76E020EE7CFDBFF020E1A
:1003F000DBCFE6FFDFCFE6FF9DDEE552E552D8D743
:10040000030EE15C02E2E16AE552E16EE552E7CFFC
:04041000D9FF1200FE
:0C0414000F9E08D00F9E07AE05D0066CAE
:10042000071EE86A07220F8E07C001F006C000F021
:10043000136A126A8E0E026E036ABDEF02F00F6A33
:10044000F9EC02F011EC03F00FB6A1EF02F00FA2ED
:1004500005D00FBAA1EF02F0A8EF02F00FBAB4EF87
:1004600002F00FA005D00FB8A1EF02F0B4EF02F038
:100470000FB8A8EF02F0036A7F0E0824026EE86A44
:1004800003220D50025EE86A035A1A0E106E086AC3
:10049000126A136A006A016A0A50055E0B50065A16
:1004A0000C50075A000E085A09E70A5005260B504F
:1004B00006220C500722000E082201D0128AD89082
:1004C0000536063607360836D8901236133600360B
:1004D0000136102EE1D7075006100510D8A4128A55
:1004E000BDEF02F00F6AF9EC02F00FB67CEF02F0FC
:1004F0000FA20ED00FB405D07F0E076EFF0E066E52
:100500001FD0800E076E066A1BD0076A066A18D0D5
:100510000FB0FBD78F0E0860EDD77E0E0864F5D7BD
:100520008E0E085C05E0D89007320632082AF8D70C
:100530000FA406D0066C071EE86A072207AEE5D7AF
:1005400012007F0E086EFF0E076E066E056E12001B
:100550007F0E0FBEFF0E086E02D07F0E086E800E5B
:10056000076E066A056AF3D70FAE04D0800E086ED8
:10057000076AF7D7086A076AF4D70150001013100A
:100580001210F8E003BEF0D701BE0CD002500310E9
:10059000EBE0D89012361336003601360206D8A0AA
:1005A0000306F2D70350D4E10228D2E012AE11D0F4
:1005B0007F0E121402E113A00CD0132AE86A002265
:1005C000012207E3D880013200321332022A0228C6
:1005D000BFE00250C9E013C005F000C006F00134CE
:1005E000076E0230086E0732089E0FBE088EA7EF16
:1005F00002F00736083602E30F840F7E06E10F8013
:10060000086A076A066A056A1200082803E0D880AB
:1006100007321200D890073202E10F8212000F86D3
:1006200012000C360D3602E30F8C0F7E06E10F88A8
:100630000D6A0C6A0B6A0A6A12000D2803E0D88062
:0E0640000C321200D8900C32EAE10F8A120040
:02064E00060E96
:10065000F66E000EF76E000EF86E00010900F55000
:10066000656F0900F550666F03E1656701D03DD005
:100670000900F550606F0900F550616F0900F550F1
:10068000626F09000900F550E96E0900F550EA6E45
:10069000090009000900F550636F0900F550646F07
:1006A00009000900F6CF67F0F7CF68F0F8CF69F0DE
:1006B00060C0F6FF61C0F7FF62C0F8FF000163533E
:1006C00002E1645307E00900F550EE6E6307F8E2BB
:1006D0006407F9D767C0F6FF68C0F7FF69C0F8FF85
:0C06E00000016507000E665BBFD712002A
:0406EC00D9CFE6FF7D
:1006F000DACFE6FFE1CFD9FFE2CFDAFFC26AC06A04
:10070000FC0EDB407F0B3C0BC26EFC0EDB38F00BAB
:10071000300B146EFB0EDB500F0B1410C16EFD0E70
:10072000DB50040DF350380B156EFD0EDB380F0B4C
:10073000070B146EFD0EDB50800B14101510C06EED
:10074000FC0EDBAE03D09E9C9D8CF28CC280E552E9
:0A075000E5CFDAFFE7CFD9FF120072
:06075A00D9CFE6FFDACF63
:10076000E6FFE1CFD9FFE2CFDAFFC30EC214146E69
:10077000FD0EDB407F0B3C0B1410C26EE552E5CF43
:08078000DAFFE7CFD9FF1200F8
:08078800000EF36E00EE00F01C
:10079000080E01D81200EA6002D0EE6AFCD7F350CE
:0807A000E9601200EE6AFCD7CB
:0807A80013EE00F023EE00F057
:1007B000F86A0F9C27EC03F00BEC04F0B2EC01F0AC
:0407C000FBD7120051
:0C07C400036A080EE76ED8900736033673
:1007D0000C50035C02E3036E072AE72EF7D71200E2
:1007E000FF0EE350E84E1200000000D000D000D011
:0607F000E82EFAD712000A
:0A07F600C450176E166AC3501610A7
:08080000F36E17C0F4FF1200B3
:08080800C250020B01E0010ED9
:020810001200D4
:04081200C28212008C
:020816001200CE
:00000001FF
